:020000020000FC
:0200000016C028
:100018005830A9F12991539537D00FEF0BBB15BB79
:100028004BBB111F1895313049F100E00093600077
:1000380001E00093610002E00093620003E0009396
:10004800630004E00093640005E00093650006E0A7
:100058000093660007E000936700C0E6D0E05527EC
:100068000FEF0ABB04BB11E000E109BF97E280E192
:100078009BBD8ABD09E00EBD789431E0FFCF5527BE
:1000880011E033270C940E00203091F0213091F0CC
:10009800223091F0233091F0243091F0253091F006
:1000A800263091F0273091F0283091F0293091F0E6
:1000B80040EC089549EF089544EA089540EB089507
:1000C80049E9089542E9089542E8089548EF0895F6
:0800D80040E8089548E908958D
:00000001FF
