:100000000C942A000C943F000C943F000C943F0089
:100010000C943F000C943F000C943F000C943F0064
:100020000C943F000C943F000C943F000C943F0054
:100030000C943F000C943F000C943F000C943F0044
:100040000C943F000C943F000C943F000C943F0034
:100050000C943F0011241FBECFE5D4E0DEBFCDBF1E
:1000600010E0A0E6B0E0E0EBF5E002C005900D92F4
:10007000A636B107D9F70E9469010C94D6020C94F8
:100080000000EF92FF920F931F93CF93DF93E12C29
:10009000F12CC0E000916400109165000E0D1F1D51
:1000A0006C2F70E080E090E00E94DB01F80160833B
:1000B000718382839383CF5FF4E0EF0EF11CC9302C
:1000C00049F7E12CF12CC0E0D0E0009162001091E2
:1000D00063000E0D1F1DBE010D2E000C880B990B29
:1000E0000E94DD012DE930E846E15FE30E946F01E7
:1000F000F80160837183828393832196F4E0EF0E8D
:10010000F11CC930D10509F780E090E0E091600072
:10011000F0916100E80FF91F1082118212821382A0
:1001200004968432910591F7DF91CF911F910F9141
:10013000FF90EF9008952F923F924F925F926F92AF
:100140007F928F929F92AF92BF92CF92DF92EF9267
:10015000FF920F931F93CF93DF93CDB7DEB76297D4
:100160000FB6F894DEBF0FBECDBFC12CD12C8CC012
:10017000C7018C0D9D1D4090600050906100480E9D
:10018000591E5A8A498A0091640010916500F8014D
:10019000E80DF91D6081718182819381A0916200D7
:1001A000B0916300FD01EE0DFF1D20813181428180
:1001B0005381F801E20DF31D40805180628073800D
:1001C00049825A826B827C82F7013C96EA0FFB1FC0
:1001D00040805180628073804D825E826F8278861B
:1001E000F801EA0DFB1D40805180628073804986D2
:1001F0005A866B867C86F7017896EA0FFB1F408053
:100200005180628073800E9469026D877E878F872C
:10021000988B2D813E814F81588569817A818B81B0
:100220009C810E9469029B01AC016D857E858F8552
:1002300098890E946F0169837A838B839C83A301D1
:10024000920169857A858B859C850E9469029B0154
:10025000AC0169817A818B819C810E946F01E9895F
:10026000FA896083718382839383F4E0EF0EF11C3B
:100270002CE0E216F10409F07BCF3CE0C30ED11C68
:1002800084E2C816D10461F046011601E4E02E0EA6
:10029000311C5601F8E0AF0EB11CE12CF12C68CFF7
:1002A00062960FB6F894DEBF0FBECDBFDF91CF913F
:1002B0001F910F91FF90EF90DF90CF90BF90AF9084
:1002C0009F908F907F906F905F904F903F902F9076
:1002D00008950E9441000E949B00FFCF5058BB2709
:1002E000AA270E9486010C942F020E94210238F056
:1002F0000E94280220F039F49F3F19F426F40C9450
:100300001E020EF4E095E7FB0C941802E92F0E9400
:10031000400258F3BA17620773078407950720F065
:1003200079F4A6F50C9462020EF4E0950B2EBA2F28
:10033000A02D0B01B90190010C01CA01A0011124EB
:10034000FF27591B99F0593F50F4503E68F11A1697
:10035000F040A22F232F342F4427585FF3CF469528
:1003600037952795A795F0405395C9F77EF41F164A
:10037000BA0B620B730B840BBAF09150A1F0FF0F14
:10038000BB1F661F771F881FC2F70EC0BA0F621F00
:10039000731F841F48F4879577956795B795F795F0
:1003A0009E3F08F0B0CF9395880F08F09927EE0F85
:1003B000979587950895E89409C097FB3EF490952A
:1003C0008095709561957F4F8F4F9F4F9923A9F02E
:1003D000F92F96E9BB279395F695879577956795BD
:1003E000B795F111F8CFFAF4BB0F11F460FF1BC001
:1003F0006F5F7F4F8F4F9F4F16C0882311F096E994
:1004000011C0772321F09EE8872F762F05C0662341
:1004100071F096E8862F70E060E02AF09A95660FFA
:10042000771F881FDAF7880F9695879597F90895B3
:1004300097F99F6780E870E060E008959FEF80EC97
:10044000089500240A94161617061806090608953A
:1004500000240A9412161306140605060895092EA0
:100460000394000C11F4882352F0BB0F40F4BF2B0F
:1004700011F460FF04C06F5F7F4F8F4F9F4F08954F
:1004800057FD9058440F551F59F05F3F71F0479545
:10049000880F97FB991F61F09F3F79F0879508952A
:1004A000121613061406551FF2CF4695F1DF08C049
:1004B000161617061806991FF1CF86957105610566
:1004C00008940895E894BB2766277727CB0197F90E
:1004D00008950E947C020C942F020E94210238F0A1
:1004E0000E94280220F0952311F00C9418020C941D
:1004F0001E0211240C9463020E94400270F3959F27
:10050000C1F3950F50E0551F629FF001729FBB270A
:10051000F00DB11D639FAA27F00DB11DAA1F649FA6
:100520006627B00DA11D661F829F2227B00DA11D59
:10053000621F739FB00DA11D621F839FA00D611DDF
:10054000221F749F3327A00D611D231F849F600D00
:10055000211D822F762F6A2F11249F5750409AF029
:10056000F1F088234AF0EE0FFF1FBB1F661F771FB5
:10057000881F91505040A9F79E3F510580F00C9480
:1005800018020C9463025F3FE4F3983ED4F386951F
:1005900077956795B795F795E7959F5FC1F7FE2B20
:1005A000880F911D9695879597F90895F894FFCF38
:0605B000B8009400700089
:00000001FF
