:100000000C942A000C943F000C943F000C943F0089
:100010000C943F000C943F000C943F000C943F0064
:100020000C943F000C943F000C943F000C943F0054
:100030000C943F000C943F000C943F000C943F0044
:100040000C943F000C943F000C943F000C943F0034
:100050000C943F0011241FBECFE5D4E0DEBFCDBF1E
:1000600010E0A0E6B0E0E8E0F2E002C005900D92FA
:10007000A636B107D9F70E94FD000C9402010C943A
:10008000000080E090E09C01220F331FE0916400AB
:10009000F0916500E20FF31F918380830196893010
:1000A000910589F780E090E09C01220F331FE091D9
:1000B0006200F0916300E20FF31F91838083019649
:1000C0008930910589F780E090E0E0916000F0913F
:1000D0006100E80FF91F11821082029682319105AA
:1000E000A1F708954F925F926F927F928F929F92A5
:1000F000AF92BF92CF92DF92EF92FF920F931F9336
:10010000CF93DF9360E070E05BC09C01260F371F48
:10011000E0916000F09161002F01420E531E20918A
:10012000640030916500D901A60DB71DCD90DC901B
:100130004091620050916300DA01A80FB91FED9061
:10014000FC90D901AA0DBB1D0D911C91DC011696E6
:10015000A40FB51FCD91DC91D901A80DB91D0D904B
:10016000BC91A02D9C01245F3F4F240F351FF90146
:1001700020813181CE9CA001CF9C500DDE9C500D82
:1001800011240C9F70010D9FF00C1C9FF00C11248A
:100190004E0D5F1DA29FE001A39FD00DB29FD00D19
:1001A00011244C0F5D1FF20151834083029686306B
:1001B000910509F0AACF6A5F7F4F6231710561F046
:1001C0003B015B01F2E0AF0EB11C4B0184E0880EF5
:1001D000911C80E090E099CFDF91CF911F910F911A
:1001E000FF90EF90DF90CF90BF90AF909F908F9057
:1001F0007F906F905F904F9008950E9441000E9401
:080200007200FFCFF894FFCF5C
:060208009400820070006A
:00000001FF
