S01800004852595F3431315F50726F6A656374392E73726563B5
S11300000C942A000C943F000C943F000C943F0085
S11300100C943F000C943F000C948F000C943F0010
S11300200C943F000C943F000C943F000C943F0050
S11300300C943F000C943F000C943F000C943F0040
S11300400C943F000C943F000C943F000C943F0030
S11300500C943F0011241FBECFE5D4E0DEBFCDBF1A
S113006010E0A0E6B0E0E2EAF1E002C005900D92F3
S1130070A636B107D9F70E94CC000C94CF000C949B
S11300800000E0916400F091650099B389B3917028
S11300908270892B8083E0916400F09165008081F7
S11300A0833019F08081811105C0E0916000F091E6
S11300B061001082E0916400F091650080818130DC
S11300C019F08081823079F4A0916200B0916300CC
S11300D09C918081981307C0E0916000F0916100C9
S11300E080818F5F8083E0916000F0916100808166
S11300F08A3051F489B38170880F880F8BBBE091EB
S11301006000F09161001082E0916200F091630060
S1130110A0916400B09165008C91808308951F9232
S11301200F920FB60F9211242F933F934F935F9327
S11301306F937F938F939F93AF93BF93EF93FF93AB
S11301400E944100FF91EF91BF91AF919F918F91D8
S11301507F916F915F914F913F912F910F900FBEBF
S11301600F901F90189584E08ABB80E189BF82E0DC
S11301708BBD81E78ABD8AE08EBDE0916400F09179
S113018065001082E0916400F0916500108208958A
S11301900E94B300789408950E94C800FFCFF89499
S10501A0FFCF8B
S10901A2920091009000A0
S9030000FC
