S01500004852595F3431315F50726F6A362E73726563F7
S11300000C942A000C943F000C943F000C943F0085
S11300100C943F000C943F000C94A2010C943F00FC
S11300200C943F000C943F000C943F000C94C601C8
S11300300C94EB010C9410020C943F000C943F00C0
S11300400C943F000C943F000C943F000C943F0030
S11300500C943F0011241FBECFE5D4E0DEBFCDBF1A
S113006010E0A0E6B0E0EAECF6E002C005900D92E4
S1130070A237B107D9F70E9460030C9463030C9470
S11300800000E0916400F09165008081811108C056
S113009081E0808380E890E0909371008093700009
S11300A08FEF8BBBE0916400F0916500808185BB8C
S11300B0E0916400F09165008081880F8083E09175
S11300C07000F09171008081E0916A00F0916B0002
S11300D0E80FF11D80818BBB8091700090917100BD
S11300E001969093710080937000089580E890E0E9
S11300F0909371008093700028E03AE0E0917000E2
S1130100F09171003083809170009091710001969C
S11301109093710080937000215081F780E890E003
S1130120909371008093700008950E947600EBEA2A
S1130130F0E0F0936D00E0936C0080818D3061F00D
S1130140AAEAB0E0FD01B0936D00A0936C008C911D
S113015011978D30B9F702C0EBEAF0E03197F093D4
S11301606D00E0936C0080818E34D9F0A091700012
S1130170B091710080818C93809170009091710096
S113018001969093710080937000E0916C00F0915F
S11301906D003197F0936D00E0936C0080818E3494
S11301A029F780EA90E090936D0080936C0080E8DA
S11301B090E0909371008093700088EF8AB908955D
S11301C00E94760088EF8AB908950F93E0916C003D
S11301D0F0916D008CB18083E0916C00F0916D0022
S11301E08CB18083E0916C00F0916D000083E0910C
S11301F06C00F0916D0080818A30B9F4E0EAF0E09F
S1130200F0936D00E0936C008081833441F08E3470
S113021019F0813479F406C00E9495000BC00E9445
S1130220E00008C088EF8AB905C03196F0936D00EC
S1130230E0936C000F910895CF93DF93E0916600F3
S1130240F09167008081813099F4E0916800F09129
S1130250690080818CB9E0916800F0916900808127
S11302608CB9E0916800F0916900808184BD12C06E
S1130270E0916E00F0916F0080818CB9E0916E0086
S1130280F0916F0080818CB9E0916E00F0916F0065
S1130290808184BDE0916E00F0916F0080818A308E
S11302A049F480E990E090936F0080936E0088EDAC
S11302B08AB927C0A0916800B09169008C918A30F6
S11302C071F480EC90E09093690080936800E09171
S11302D06600F0916700108288ED8AB912C0C0915F
S11302E06600D09167008881813031F41196B09313
S11302F06900A093680005C03196F0936F00E09305
S11303006E00DF91CF91089580EA90E090936D00A4
S113031080936C002CE0E0916C00F0916D001082F1
S113032080916C0090916D00019690936D00809384
S11303306C00215081F780EA90E090936D008093E7
S11303406C0008951F920F920FB60F9211242F93F1
S11303503F934F935F936F937F938F939F93AF9349
S1130360BF93EF93FF930E944100FF91EF91BF91E0
S1130370AF919F918F917F916F915F914F913F9139
S11303802F910F900FBE0F901F9018951F920F92F0
S11303900FB60F9211242F933F934F935F936F9354
S11303A07F938F939F93AF93BF93EF93FF93A895FE
S11303B00E94E500FF91EF91BF91AF919F918F91C2
S11303C07F916F915F914F913F912F910F900FBE4D
S11303D00F901F9018951F920F920FB60F92112431
S11303E02F933F934F935F936F937F938F939F9339
S11303F0AF93BF93EF93FF93A8950E941C01FF91C5
S1130400EF91BF91AF919F918F917F916F915F9188
S11304104F913F912F910F900FBE0F901F90189501
S11304201F920F920FB60F9211242F933F934F9365
S11304305F936F937F938F939F93AF93BF93EF9348
S1130440FF93A8950E948401FF91EF91BF91AF9112
S11304509F918F917F916F915F914F913F912F91D8
S11304600F900FBE0F901F90189580E489B910BCAF
S113047088ED8AB986E880BD08958FEF8ABB84BB76
S113048080E189BF97E29BBD8ABD89E08EBD089556
S113049080E0E0917000F091710080832091700001
S11304A0309171002F5F3F4F3093710020937000A3
S11304B08F5F883071F780E890E0909371008093AB
S11304C07000E0916E00F0916F008FE48083E09102
S11304D06E00F0916F00CF01019690936F008093AE
S11304E06E008BE48183E0916E00F0916F00CF0188
S11304F0019690936F0080936E009DE09183E0914C
S11305006E00F0916F008AE0818320E930E030933F
S11305106F0020936E0020EA30E030936D0020934A
S11305206C00E0916A00F0916B0020EC2083E09174
S11305306A00F0916B009F012F5F3F4F30936B0077
S113054020936A0029EF2183E0916A00F0916B0007
S11305509F012F5F3F4F30936B0020936A0024EA82
S11305602183E0916A00F0916B009F012F5F3F4F60
S113057030936B0020936A0020EB2183E0916A00A2
S1130580F0916B009F012F5F3F4F30936B002093DE
S11305906A0029E92183E0916A00F0916B009F01D0
S11305A02F5F3F4F30936B0020936A0022E9218331
S11305B0E0916A00F0916B009F012F5F3F4F3093F1
S11305C06B0020936A0022E82183E0916A00F09195
S11305D06B009F012F5F3F4F30936B0020936A00A5
S11305E028EF2183E0916A00F0916B009F012F5F57
S11305F03F4F30936B0020936A0020E82183E09101
S11306006A00F0916B009F012F5F3F4F30936B00A6
S113061020936A0028E92183E0916A00F0916B003D
S11306202FEF218320EB30E030936B0020936A009E
S1130630E0916800F091690022E52083E091680070
S1130640F09169009F012F5F3F4F30936900209321
S113065068009183E0916800F0916900818380ECE7
S113066090E09093690080936800E0E0F1E0F093FB
S11306706500E093640081E0808381E091E09093E1
S113068063008093620082E091E090936100809324
S1130690600008950E9435020E943D028CE081BDF5
S11306A0789404B603FE09C0E0916600F0916700F7
S11306B081E0808388EF8AB908950E9448020895F2
S10D06C00E944A03FFCFF894FFCF15
S11306CA020101010001C300C000B000A0009000B3
S10506DA80009A
S9030000FC
