:100000000C942A000C943F000C943F000C943F0089
:100010000C943F000C943F000C94A2010C943F0000
:100020000C943F000C943F000C943F000C94C601CC
:100030000C94EA010C940E020C943F000C943F00C7
:100040000C943F000C943F000C943F000C943F0034
:100050000C943F0011241FBECFE5D4E0DEBFCDBF1E
:1000600010E0A0E6B0E0EEE5F6E002C005900D92EB
:10007000A437B107D9F70E94E4020C942D030C9425
:100080000000E0917000F0917100CF010196909313
:100090007100809370008181823359F0833381F045
:1000A0008133A1F4E0916400F091650081E08083E8
:1000B0000DC0E0916200F091630081E0808306C092
:1000C000E0916000F091610081E0808388EF8AB95F
:1000D00080EA90E090937100809370000895E09121
:1000E0007000F0917100CF010196909371008093A0
:1000F00070008181823351F0833371F0813389F450
:10010000E0916400F091650010820BC0E091620004
:10011000F0916300108205C0E0916000F0916100F1
:10012000108288EF8AB980EA90E090937100809302
:1001300070000895E0916600F09167008081823040
:1001400031F1833009F443C0813009F05FC0A091E0
:100150006200B09163008C91813019F482E0808359
:1001600073C0A0916000B09161008C91882319F058
:1001700083E0808369C0A0916400B09165008C9198
:10018000882319F081E080835FC010825DC0A09158
:100190006000B09161008C91813019F483E080831C
:1001A00053C0A0916400B09165008C91882319F030
:1001B00081E0808349C0A0916200B09163008C917E
:1001C000882319F082E080833FC010823DC0A09157
:1001D0006400B09165008C91813011F4808334C04B
:1001E000A0916200B09163008C91882319F082E0A5
:1001F00080832AC0A0916000B09161008C91882317
:1002000019F083E0808320C010821EC0A09164009A
:10021000B09165008C91813011F4808315C0A0915C
:100220006200B09163008C91882319F082E0808392
:100230000BC0A0916000B09161008C91882319F0EF
:1002400083E0808301C01082E0916800F091690032
:1002500081E0808308950F93E0917000F091710028
:100260008CB18083E0917000F09171008CB180833B
:10027000E0917000F09171000083E0917000F091C6
:10028000710080818A3089F4E0EAF0E0F093710037
:10029000E09370008081813529F0833559F40E9404
:1002A000410008C00E946F0005C03196F0937100B4
:1002B000E09370000F910895E0917200F091730047
:1002C00080818CB9E0917200F091730080818CB9CB
:1002D000E0917200F0917300808184BDE091720022
:1002E000F091730080818A3049F480E990E0909326
:1002F00073008093720088ED8AB908953196F09367
:100300007300E0937200089580EA90E0909371008A
:100310008093700025E0E0917000F09171001082F0
:10032000809170009091710001969093710080937C
:100330007000215081F780EA90E0909371008093E3
:10034000700008951F920F920FB60F9211242F93F1
:100350003F934F935F936F937F938F939F93AF934D
:10036000BF93EF93FF930E949A00FF91EF91BF918B
:10037000AF919F918F917F916F915F914F913F913D
:100380002F910F900FBE0F901F9018951F920F92F4
:100390000FB60F9211242F933F934F935F936F9358
:1003A0007F938F939F93AF93BF93EF93FF930E949D
:1003B0002B01FF91EF91BF91AF919F918F917F9111
:1003C0006F915F914F913F912F910F900FBE0F90C2
:1003D0001F9018951F920F920FB60F9211242F9312
:1003E0003F934F935F936F937F938F939F93AF93BD
:1003F000BF93EF93FF930E945C01FF91EF91BF9138
:10040000AF919F918F917F916F915F914F913F91AC
:100410002F910F900FBE0F901F9018951F920F9263
:100420000FB60F9211242F933F934F935F936F93C7
:100430007F938F939F93AF93BF93EF93FF930E940C
:100440008401FF91EF91BF91AF919F918F917F9127
:100450006F915F914F913F912F910F900FBE0F9031
:100460001F90189580E489B910BC88ED8AB986E898
:1004700080BD08958FEF8ABB80E189BF8DE38BBD7E
:1004800089E08ABD8BE08EBD0895E0917200F09105
:1004900073008FE48083E0917200F0917300CF01CC
:1004A000019690937300809372008BE48183E091B6
:1004B0007200F0917300CF010196909373008093C6
:1004C00072008DE08183E0917200F09173008AE008
:1004D000818380E990E0909373008093720080EABA
:1004E00090E09093710080937000E0916E00F09125
:1004F0006F0081E08083E0916C00F0916D0080E8F6
:100500008083E0916A00F0916B0085E58083E09143
:100510006800F09169001082E0916600F091670038
:100520001082E0916400F09165001082E091620019
:10053000F09163001082E0916000F0916100108200
:1005400008950E9432020E943A020E944502789465
:100550000895E0916E00F0916F008081811103C0D9
:1005600081E0808303C08081880F8083E0916E00EA
:10057000F0916F0080818BBB0895E0916C00F09149
:100580006D008081811103C080E8808303C0808179
:1005900086958083E0916C00F0916D0080818BBB2B
:1005A0000895E0916A00F0916B00808180958083CE
:1005B000E0916A00F0916B0080818BBBE091680054
:1005C000F0916900108208950E94A102E0916600F6
:1005D000F09167008081823069F0833019F08130BA
:1005E000C9F510C0E0916800F0916900808188230E
:1005F00031F12EC0E0916800F0916900808188237C
:1006000099F01BC0E0916800F09169008081811130
:1006100009C00E94A902E0916800F0916900808100
:100620008823B9F31082D2CF0E94BD02E091680006
:10063000F091690080818823B9F31082C7CF0E94AE
:10064000D102E0916800F091690080818823B9F3BC
:0E0650001082BCCF0E949A00B9CFF894FFCF61
:10065E00B700B600B500B400B300B200B100B000F0
:04066E00A000900058
:00000001FF
