:100000000C942A000C943F000C943F000C943F0089
:100010000C943F000C943F000C9458000C943F004B
:100020000C943F000C943F000C943F000C947C0017
:100030000C9486000C9490000C943F000C943F00AC
:100040000C943F000C943F000C943F000C943F0034
:100050000C943F0011241FBECFE5D4E0DEBFCDBF1E
:1000600010E0A0E6B0E0EEE2F3E002C005900D92F1
:10007000A437B107D9F70E944C010C9495010C9458
:100080000000E0916600F091670080818F5F8083BF
:10009000E0916600F09167008081843011F481E086
:1000A0008083E0916800F091690081E08083089589
:1000B0001F920F920FB60F9211242F933F934F93DD
:1000C0005F936F937F938F939F93AF93BF93EF93C0
:1000D000FF930E944100FF91EF91BF91AF919F91DB
:1000E0008F917F916F915F914F913F912F910F90E1
:1000F0000FBE0F901F9018951F920F920FB60F9280
:1001000011240F900FBE0F901F9018951F920F9201
:100110000FB60F9211240F900FBE0F901F901895DD
:100120001F920F920FB60F9211240F900FBE0F90D7
:100130001F90189580E489B910BC88ED8AB986E8CB
:1001400080BD08958FEF8ABB80E189BF8DE38BBDB1
:1001500089E08ABD8BE08EBD0895E0917200F09138
:1001600073008FE48083E0917200F0917300CF01FF
:10017000019690937300809372008BE48183E091E9
:100180007200F0917300CF010196909373008093F9
:1001900072008DE08183E0917200F09173008AE03B
:1001A000818380E990E0909373008093720080EAED
:1001B00090E09093710080937000E0916E00F09158
:1001C0006F0081E08083E0916C00F0916D0090E819
:1001D0009083E0916A00F0916B0095E59083E09147
:1001E0006800F09169001082E0916600F09167006C
:1001F0001082E0916400F09165008083E0916200DC
:10020000F09163008083E0916000F0916100808351
:1002100008950E949A000E94A2000E94AD00789466
:100220000895E0916E00F0916F008081811103C00C
:1002300081E0808303C08081880F8083E0916E001D
:10024000F0916F0080818BBB0895E0916C00F0917C
:100250006D008081811103C080E8808303C08081AC
:1002600086958083E0916C00F0916D0080818BBB5E
:100270000895E0916A00F0916B0080818095808301
:10028000E0916A00F0916B0080818BBBE091680087
:10029000F0916900108208950E940901E0916600C2
:1002A000F09167008081823069F0833019F08130ED
:1002B000C9F510C0E0916800F09169008081882341
:1002C00031F12EC0E0916800F091690080818823AF
:1002D00099F01BC0E0916800F09169008081811164
:1002E00009C00E941101E0916800F09169008081CD
:1002F0008823B9F31082D2CF0E942501E0916800D3
:10030000F091690080818823B9F31082C7CF0E94E1
:100310003901E0916800F091690080818823B9F388
:0E0320001082BCCF0E944100B9CFF894FFCFED
:10032E00B700B600B500B400B300B200B100B00023
:04033E00A00090008B
:00000001FF
