:100000000C942A000C94B6000C94DA000C943F0077
:100010000C943F000C943F000C943F000C943F0064
:100020000C943F000C943F000C943F000C943F0054
:100030000C943F000C943F000C943F000C943F0044
:100040000C943F000C943F000C943F000C943F0034
:100050000C943F0011241FBECFE5D4E0DEBFCDBF1E
:1000600010E0A0E6B0E0EEE3F2E002C005900D92F1
:10007000A636B107D9F70E941A010C941D010C9401
:100080000000CF93DF93E0916400F09165009081D0
:10009000A0916200B09163008C918917E0F4808197
:1000A0008230C8F08C91811116C0C0916000D0914F
:1000B00061008881813079F480B3887090E0809508
:1000C00090959595879584708BBBE0916000F09139
:1000D0006100108210C08081882351F08C918823A8
:1000E00039F01082E0916200F0916300108203C049
:1000F00080818F5F8083DF91CF910895CF93DF93CD
:10010000E0916200F09163009081A0916400B09151
:1001100065008C918917B8F480818230A0F08C91B1
:10012000811111C0C0916000D0916100888181115E
:100130000AC080B384708BBBE0916000F0916100D5
:1001400081E0808310C08C91882351F080818823C6
:1001500039F01C92E0916200F0916300108203C0BC
:1001600080818F5F8083DF91CF9108951F920F92DE
:100170000FB60F9211242F933F934F935F936F937A
:100180007F938F939F93AF93BF93EF93FF930E94BF
:100190004100FF91EF91BF91AF919F918F917F911E
:1001A0006F915F914F913F912F910F900FBE0F90E4
:1001B0001F9018951F920F920FB60F9211242F9334
:1001C0003F934F935F936F937F938F939F93AF93DF
:1001D000BF93EF93FF930E947E00FF91EF91BF9139
:1001E000AF919F918F917F916F915F914F913F91CF
:1001F0002F910F900FBE0F901F90189584E08ABB2F
:1002000011BA8BBB85E085BF80EC8BBFE0916400A9
:10021000F09165001082E0916200F091630010821D
:10022000E0916000F0916100108208950E94FE004C
:0E023000789408950E941601FFCFF894FFCF36
:06023E0092009100900007
:00000001FF
